{
  "contractName": "ApprovalContract",
  "abi": [
    {
      "constant": true,
      "inputs": [],
      "name": "approver",
      "outputs": [
        {
          "internalType": "address",
          "name": "",
          "type": "address"
        }
      ],
      "payable": false,
      "stateMutability": "view",
      "type": "function"
    },
    {
      "constant": true,
      "inputs": [],
      "name": "sender",
      "outputs": [
        {
          "internalType": "address",
          "name": "",
          "type": "address"
        }
      ],
      "payable": false,
      "stateMutability": "view",
      "type": "function"
    },
    {
      "constant": false,
      "inputs": [
        {
          "internalType": "address payable",
          "name": "_receiver",
          "type": "address"
        }
      ],
      "name": "deposit",
      "outputs": [],
      "payable": true,
      "stateMutability": "payable",
      "type": "function"
    },
    {
      "constant": true,
      "inputs": [],
      "name": "viewApprover",
      "outputs": [
        {
          "internalType": "address",
          "name": "",
          "type": "address"
        }
      ],
      "payable": false,
      "stateMutability": "pure",
      "type": "function"
    },
    {
      "constant": false,
      "inputs": [],
      "name": "approve",
      "outputs": [],
      "payable": false,
      "stateMutability": "nonpayable",
      "type": "function"
    }
  ],
  "bytecode": "0x608060405234801561001057600080fd5b50610385806100206000396000f3fe60806040526004361061004a5760003560e01c806312424e3f1461004f578063141a8dd81461006657806367e404ce146100bd578063d93ce89c14610114578063f340fa011461016b575b600080fd5b34801561005b57600080fd5b506100646101af565b005b34801561007257600080fd5b5061007b610266565b604051808273ffffffffffffffffffffffffffffffffffffffff1673ffffffffffffffffffffffffffffffffffffffff16815260200191505060405180910390f35b3480156100c957600080fd5b506100d261027e565b604051808273ffffffffffffffffffffffffffffffffffffffff1673ffffffffffffffffffffffffffffffffffffffff16815260200191505060405180910390f35b34801561012057600080fd5b506101296102a3565b604051808273ffffffffffffffffffffffffffffffffffffffff1673ffffffffffffffffffffffffffffffffffffffff16815260200191505060405180910390f35b6101ad6004803603602081101561018157600080fd5b81019080803573ffffffffffffffffffffffffffffffffffffffff1690602001909291905050506102bf565b005b735ee4df77b96eaded6d72d5c7841b578f6095375c73ffffffffffffffffffffffffffffffffffffffff163373ffffffffffffffffffffffffffffffffffffffff16146101fb57600080fd5b600160009054906101000a900473ffffffffffffffffffffffffffffffffffffffff1673ffffffffffffffffffffffffffffffffffffffff166108fc479081150290604051600060405180830381858888f19350505050158015610263573d6000803e3d6000fd5b50565b735ee4df77b96eaded6d72d5c7841b578f6095375c81565b6000809054906101000a900473ffffffffffffffffffffffffffffffffffffffff1681565b6000735ee4df77b96eaded6d72d5c7841b578f6095375c905090565b600034116102cc57600080fd5b336000806101000a81548173ffffffffffffffffffffffffffffffffffffffff021916908373ffffffffffffffffffffffffffffffffffffffff16021790555080600160006101000a81548173ffffffffffffffffffffffffffffffffffffffff021916908373ffffffffffffffffffffffffffffffffffffffff1602179055505056fea265627a7a723158203753569be24f7d42ab8af012c84dfe5b2f16f7c787047306896a97f8802014ba64736f6c63430005100032",
  "source": "// SPDX-License-Identifier: MIT\r\npragma solidity >=0.4.22 <0.9.0;\r\n\r\ncontract ApprovalContract {\r\n\r\n  address public sender;\r\n  address payable receiver;\r\n  address constant public approver = 0x5eE4df77b96eAdEd6d72D5C7841b578F6095375c;\r\n\r\n \r\n\r\n  function deposit(address payable _receiver) external payable {\r\n    require(msg.value > 0);\r\n    sender = msg.sender;\r\n    receiver = _receiver;\r\n  }\r\n\r\n  function viewApprover() external pure returns(address) {\r\n    return(approver);\r\n  }\r\n\r\n  function approve() external {\r\n    require(msg.sender == approver);\r\n    receiver.transfer(address(this).balance);\r\n  }\r\n\r\n\r\n}\r\n",
  "sourcePath": "C:/Users/adnan/Desktop/contracts/contracts/ApprovalContract.sol",
  "compiler": {
    "name": "solc",
    "version": "0.5.16+commit.9c3226ce.Emscripten.clang"
  },
  "schemaVersion": "3.3.3",
  "updatedAt": "2021-02-25T15:34:26.568Z",
  "devdoc": {
    "methods": {}
  },
  "userdoc": {
    "methods": {}
  }
}